:020000040800F2
:10000000385100200D030008413F0008BB350008AF
:10001000713E0008B9060008C5480008000000004D
:100020000000000000000000000000004D02000879
:10003000B90A000800000000A902000851410008A8
:1000400027030008270300082703000827030008E8
:1000500027030008270300082703000827030008D8
:1000600027030008270300082703000827030008C8
:100070002703000827030008250A000827030008B3
:1000800027030008270300082703000827030008A8
:10009000BD060008270300082703000827030008FF
:1000A0002D42000845420008394200082703000895
:1000B000514200085D42000827030008270300089A
:1000C0002703000827030008270300082703000868
:1000D0002703000895480008A1480008AD4800081B
:1000E0002703000827030008270300082703000848
:1000F0008142000875420008270300082703000812
:1001000027030008270300086942000827030008A6
:1001100027030008194600082703000827030008E2
:100120002703000827030008310A000827030008F6
:1001300027030008270300082703000827030008F7
:1001400027030008270300082703000827030008E7
:10015000270300082703000827030008B948000800
:1001600027030008270300082703000827030008C7
:1001700027030008270300082703000800000000E9
:100180002703000827030008254600082703000866
:100190002703000827030008270300082703000897
:1001A00027030008270300082703000800F002F8CF
:1001B00000F03CF80AA090E8000C82448344AAF1C5
:1001C0000107DA4501D100F031F8AFF2090EBAE8C3
:1001D0000F0013F0010F18BFFB1A43F0010318477B
:1001E0009C720000BC720000103A24BF78C878C12D
:1001F000FAD8520724BF30C830C144BF04680C602D
:10020000704700000023002400250026103A28BF74
:1002100078C1FBD8520728BF30C148BF0B60704778
:100220001FB506F0ECFF1FBD10B510BD00F083F93F
:100230001146FFF7F5FF05F019F900F0A1F903B435
:10024000FFF7F2FF03BC00F0A9F900002C4B19687E
:100250000868B0E8F04F80F30988BFF36F8F4FF064
:10026000000080F311887047000000000848006813
:10027000006880F308884FF0000080F3148862B6AD
:1002800061B6BFF34F8FBFF36F8F00DF00BF00BFBA
:1002900008ED00E0DFF80C00016841F47001016036
:1002A000704700BF88ED00E0EFF30980BFF36F8F68
:1002B000134B1A681EF0100F08BF20ED108A20E9BA
:1002C000F04F106009B44FF0500080F31188BFF375
:1002D0004F8FBFF36F8F06F051FA4FF0000080F39D
:1002E000118809BC19680868B0E8F04F1EF0100FBB
:1002F00008BFB0EC108A80F30988BFF36F8F704796
:100300005C000020EFF3058070470000094880473B
:1003100009480047FEE7FEE7FEE7FEE7FEE7FEE7E7
:10032000FEE7FEE7FEE7FEE704480549054A064BFF
:10033000704700001D420008AD010008384B002046
:1003400038510020384D0020384D002053EA020C6F
:1003500000F069802DE9F04B4FF00006002B1FBF25
:10036000B3FA83F503FA05F424FA05F65E4012BFEA
:100370001643B2FA82F502FA05F4C5F120051EBF54
:1003800022FA05FC44EA0C04203556EA044C4FEAF4
:10039000144418BF641C4FF000084FF0000990424D
:1003A00071EB030C39D3002919BFB1FA81F701FAB7
:1003B00007F6B0FA80F700FA07F6C7F120071EBF6C
:1003C00020FA07FC46EA0C062037B6FBF4FCA7EB44
:1003D0000507103F07F01F0BCBF120060CFA0BFBB3
:1003E0002CFA06F644BFB3460026202FA4BF5E4673
:1003F0004FF0000B5BEA060C08BF4FF0010B19EB46
:100400000B09ABFB027C48EB0608C01B06FB02CCC9
:100410000BFB03CC71EB0C01C1E70B4602464146D6
:100420004846BDE8F08B13B54FF000004FF00001D7
:10043000AFF30080BDE81C40704710B5203AC0F013
:100440000B80B1E81850203AA0E81850B1E81850D5
:10045000A0E81850BFF4F5AF5FEA027C24BFB1E812
:100460001850A0E8185044BF18C918C0BDE8104083
:100470005FEA827C24BF51F8043B40F8043B08BF8C
:100480007047D20728BF31F8023B48BF11F8012B53
:1004900028BF20F8023B48BF00F8012B70474FF0FF
:1004A00000020429C0F0128010F0030C00F01B8041
:1004B000CCF1040CBCF1020F18BF00F8012BA8BF4F
:1004C00020F8022BA1EB0C0100F00DB85FEAC17C13
:1004D00024BF00F8012B00F8012B48BF00F8012BC6
:1004E00070474FF0000200B51346944696462039F7
:1004F00022BFA0E80C50A0E80C50B1F12001BFF4DD
:10050000F7AF090728BFA0E80C5048BF0CC05DF842
:1005100004EB890028BF40F8042B08BF704748BF90
:1005200020F8022B11F0804F18BF00F8012B704704
:10053000704770477047754600F02CF8AE460500CE
:100540006946534620F00700854618B020B5FFF7EE
:10055000EBFEBDE820404FF000064FF000074FF0E3
:1005600000084FF0000B21F00701AC46ACE8C009D1
:10057000ACE8C009ACE8C009ACE8C0098D467047DA
:1005800010B50446AFF300802046BDE81040FFF7E9
:1005900056BE000000487047D84A00200149182084
:1005A000ABBEFEE72600020070470000154910B5FB
:1005B0000978F2EE080A463900EE101A124A134B77
:1005C000B8EEC00A1278091D4C3A20EE200ABDEEA2
:1005D000C00A10EE104A9C83544200EE104A0929CA
:1005E000B8EEC00A20EE200ABDEEC00A10EE104A96
:1005F000DC8306D212F1050F03DD052A01DA0121A1
:10060000017010BDEC000020ED0000204C4A0020DD
:1006100008B50025214E224C8DF80050F07A0428B0
:1006200031D104F04DFC05F0C5F904F049FB05F0AB
:1006300057F8DFF87080DFF870A0DFF870901C4F7B
:1006400014E000BF98F8000008B39AF80000F0B179
:10065000A583E5839DF80000E0B18DF80050A583E7
:10066000E58304F05DF9012005F040F8E068B84248
:10067000E8DCA58341F664110E4805F00DFD04F099
:100680008DF90520F072012005F030F8C6E7A4F8D6
:100690001C90E8E76846FFF789FFE4E700000020C8
:1006A0004C4A0020EC000020ED00002024FAFFFF5F
:1006B00030F0A7FF02391200FEE70000014800F009
:1006C00090BD00005C03002010B58AB04FF40074A8
:1006D000029400240494059408240694040A8DF8D6
:1006E00000408DF80100080A8DF80200100A8DF80C
:1006F00004008DF80520180A8DF806008DF8031007
:100700008DF8073008AB6A4602A9024800F000FCE9
:100710000AB010BD5C03002010B58AB040F2FF148F
:10072000029400240494059408240694040A8DF885
:1007300000408DF80100080A8DF80200100A8DF8BB
:1007400004008DF80520180A8DF806008DF80310B6
:100750008DF8073008AB6A4602A9024800F0D8FBC2
:100760000AB010BD5C030020038A818A591A0AB2BC
:100770000B4912F5805F4A80B0F91C1001DC491C5E
:1007800003E0B2F5805F01DB491E8183B0F91C10E4
:10079000B0F9202003EB4131891A816170470000D4
:1007A0004800002000B58BB000200121CDE90601F2
:1007B0000891009001900290039005900490694682
:1007C000054800F013FC044800F012FF0221024823
:1007D00000F08CFB0BB000BD5C030020184E194CE0
:1007E0002DED028B307828B941F2883004F07EFF7D
:1007F00001203070207A03281ED1A088124D4FF6B8
:10080000F6714843A883E0884843E883B4F90000C0
:1008100006F085FA9FED0D1B53EC112B06F096FAAE
:1008200041EC180B686A06F079FC53EC182B06F0C3
:100830009FF906F06BF96862012004F057FFD1E7D9
:1008400000000020924A00204C4A00202D431CEB5F
:10085000E2362A3F2DE9F04141796F4C8E0926722C
:100860004179C1F3011767727ED0002F7CD00188D7
:10087000C1F30A01A1F58061218042788378D20812
:1008800042EA4312C2F30A05A5F5806565808278C5
:10089000C378920942EA8302037901F5257142EA9D
:1008A0008322C2F30A03A3F58063A380027990F840
:1008B00005C0520842EACC12C2F30A02A2F58062D5
:1008C000E280B0F810C0CCF30A0CACF5806CA4F850
:1008D0000CC0B0F806C0A4F80EC0B0F808C0A4F868
:1008E00010C0B0F80AC0A4F812C090F80CC084F888
:1008F00016C090F80DC084F817C0C0892083A67276
:100900004FF4A560E77281420BD805F52575854245
:1009100007D803F52573834203D802F52572824276
:1009200003D90E213C48FFF7BAFDB4F900000021BD
:1009300000EE100A3948B8EEC00AB0EEC00A10EE58
:10094000102A824200DC2180B4F9022000EE102A35
:10095000B8EEC00AB0EEC00A10EE102A824200DCE7
:100960006180B4F9042000E051E000EE102AB8EEF6
:10097000C00AB0EEC00A10EE102A824200DCA1804C
:10098000B4F9062000EE102AB8EEC00AB0EEC00A94
:1009900010EE102A824200DCE180B4F90C2000EE57
:1009A000102AB8EEC00AB0EEC00A10EE102A824239
:1009B00000DCA181B4F9000040F28A21884200DD08
:1009C0002180B4F900201648824200DA2080B4F970
:1009D00002208A4200DD6180B4F90220824200DAFE
:1009E0006080B4F904208A4200DDA180B4F90420BB
:1009F000824200DAA080B4F906208A4200DDE1805C
:100A0000B4F90610814200DAE080BDE8F081A07AF6
:100A10002072E07A6072F8E7924A00200000C0403D
:100A200076FDFFFF014800F071BE000014070020B2
:100A3000014800F06BBE0000740700200168182315
:100A4000CAB2103AB2FBF3F2054B6FF30901032A65
:100A50009B5CC36500D9091D81650846704700008D
:100A60009C73000810B5014600208B698A6A4FF01C
:100A7000C07453B1B3F5005F15D072B1012A0CD028
:100A8000022A0AD0032A09D104E01AB1012A06D0A9
:100A9000022A03D1C96AC90100D5012010BDC96A63
:100AA000A142FAD010BD002AF7D0012AF2D0022AC2
:100AB000F3D0032AF3D010BD704772B6FEE70000F2
:100AC0002DED0C8B9FED78CADFED78CA9FED78DABB
:100AD0004FF4FA799FED778ADFED778A4FF47A76D3
:100AE0009FED769ADFED769A9FED76AA4FF000089B
:100AF000754CA07A18B104F0E3F884F80A807348C2
:100B0000407A022801D10120E0726079D8B1704D9D
:100B100085ED00CA9FED6F0A40F2DC5085ED030AB7
:100B200004F0E4FD6D486C490160C5ED04CA9FED19
:100B30006C0A85ED050A85ED01DA9FED6A0A85EDFF
:100B4000020A84F80580A079C8B3644F664838600B
:100B5000484604F0CBFD5E4D484685ED048A04F01E
:100B6000C5FD5D483860484604F0C0FDC5ED048A07
:100B7000484604F0BBFD9FED5D0A4FF4487785EDD4
:100B8000000A384604F0B2FDC5ED04CA304604F050
:100B9000ADFD9FED570A304685ED010A04F0A6FD34
:100BA0000121002005F04EFC85ED00CA384604F016
:100BB0009DFD85ED01DA84F8068004F091FDE07971
:100BC00008B3434D85ED019AC5ED009A9FED490AA2
:100BD00085ED050A9FED480A304685ED030A04F0CD
:100BE00085FD9FED460A4FF4487085ED020A04F03A
:100BF0007DFD85ED048A85ED00AA9FED410A85ED16
:100C0000030A84F80780207AF0B30120304DDFED2D
:100C10003CAA9FED3CBADFED3CBAE0704FF4FA6AB3
:100C20004FF4966B4FF4967701202071C1B2E078B3
:100C300005F000F9504604F059FD85ED01BA58461B
:100C400004F054FDC5ED048A384604F04FFD85EDEF
:100C5000019AC5ED03BA484604F048FDC5ED009A77
:100C6000304604F043FD85ED048A384604F03EFD2D
:100C700085ED00AA304604F039FDC5ED03AA2079C0
:100C8000401CC0B2207100E009E00328CED9E07812
:100C9000401CC0B2E0700328C6D984F80880012047
:100CA00004F024FD24E70000000048430000A042B7
:100CB0000000D24200000C4300001B430000B4437C
:100CC000000096430000964200000020924A002057
:100CD000784600200000E042C0450400E400002007
:100CE0000000E64200008242A06806000000484280
:100CF00000008C4300003443000070420000384282
:100D000000001442000020420000F042028A828269
:100D10000A8852BA0282028842804A8852BA028005
:100D20008A8852BAC2808979817790F82210012985
:100D300001D0FFF719BD0021816181838182028A80
:100D4000028480F8221070472DED028B0026114C92
:100D5000DFF844809FED118A114FDFF84890DFF8EB
:100D600048A041F66415E07A07280ED1294640468E
:100D700005F0D8F987ED098A2946484605F0BCF9FF
:100D80002946504605F088F9E672012004F0AEFCD1
:100D9000E9E7000000000020209586000000000028
:100DA0004C4A002084D92400A91A1E002DED028B84
:100DB00041F66415144CDFF85480DFF854909FED31
:100DC000158A154E4FF4FA7A4FF47A7B0227E07AAF
:100DD000012814D12946404605F074F929464846B1
:100DE00005F08AF9504604F081FC86ED098A5846E0
:100DF00004F07CFC2946094805F094F9E7720120CB
:100E000004F074FCE3E7000000000020B9D01B00F0
:100E1000E4102E000000B4424C4A0020A0F9560015
:100E20002DED028B41F66415144CDFF854909FEDC4
:100E3000158A154FDFF854B04FF496764FF4487A80
:100E40004FF00408E07A032814D12946484605F0FB
:100E500069F9304604F04AFC87ED098A504604F0EF
:100E600045FC2946584605F02DF9304604F03EFC75
:100E700084F80B80012004F039FCE3E70000002037
:100E8000251E5700000000004C4A002040420F0081
:100E90002DED028B4FF49675104C9FED118A114E7B
:100EA000DFF844A04FF4487841F664190627E07A49
:100EB00005280FD1284604F019FC86ED098A404622
:100EC00004F014FC4946504605F02CF9284604F07D
:100ED0000DFCE772012004F009FCE8E700000020A7
:100EE0000000B4C24C4A0020404B4C0090F8202037
:100EF000012A07D0022A05D0416A41F480214162CB
:100F000001207047006842690A434261002070472F
:100F1000F0B590F820500468A468012D05D0022D8A
:100F200003D0416A41F480215DE014F0406F01D1AB
:100F3000E50055D5C4F30164022C03D9416A41F49C
:100F4000000150E00125A5401D608D684FF4C0737D
:100F50009DB1CE6835434E6845EAC605066803EB89
:100F60000417F5514FF4C275076805EB04150E69B7
:100F70007E51097D012905D009E00E88CD6845EA3A
:100F80004655EBE701684E5946F480764E5111798B
:100F9000D579567941EA056195792D0445EA06250A
:100FA00029434FF4C676056806EB0416A95111785B
:100FB000D57841EA0561957852782D0445EA0222F8
:100FC00011434FF4C475026805EB041551510068D4
:100FD00003EB0411425842F0010242500020F0BDE0
:100FE000416A41F4001141620120F0BD10B590F852
:100FF0002020012A07D0022A05D0416A41F480212D
:101000004162012010BD3B48D0F8002242F00102AD
:10101000C0F80022D0F8002222F47C52C0F800224E
:10102000D0F800224B6A42EA0322C0F800220A7D6F
:1010300002F01F0301229A40D0F81C329343C0F8FB
:101040001C32CB69B3B9D0F80C329343C0F80C32E0
:101050008C894B6864F31F434C6900EBC404C4F8EB
:1010600040320C890B6864F31F434C6900EBC404E5
:10107000C4F84432CB69012B16D1D0F80C3213439B
:10108000C0F80C320C884B6864F31F434C6900EBCA
:10109000C404C4F840320C89CB6864F31F434C6924
:1010A00000EBC404C4F844328B69002BD0F804323E
:1010B0000ED01343C0F804320B69002BD0F8143261
:1010C00008D01343C0F81432096A012904D008E09B
:1010D0009343EFE79343F5E7D0F81C121143C0F8B0
:1010E0001C12D0F8001221F00101C0F800120020FB
:1010F00010BD000000640040704730B590F82040FB
:10110000012C05D0022C03D0416A41F480215DE01E
:101110000468002955D02469A40754D04FF4D8742A
:10112000056804EB01142D5915F004059560056858
:101130002D594ED0ED08556005682C5904F0020475
:10114000D4604FF4DA74056804EB01142D5905F0EE
:101150000F05156105682D59C5F3072595610568CB
:101160002C59240C54614FF4DC72046802EB011218
:10117000A4581C700468A458240A5C700468A4581D
:10118000240C9C700468A258120EDA704FF4DE72C0
:10119000046802EB0112A4581C710468A458240AC4
:1011A0005C710468A458240C9C710468A258120E47
:1011B000DA71006881B1016941F02001016100200C
:1011C00030BDE468A8E7416A41F4001141620120A2
:1011D00030BD6D0D1560AFE7C16841F02001C16001
:1011E000EDE72DE9F05F0546006800244669D0F878
:1011F00004908768D0F80CB0D0F810A0D0F8188010
:10120000F10748D0F90714D001218160B80703D550
:10121000284600F01AFA0CE0780702D54FF4006473
:1012200007E0380702D54FF4805402E0284600F06A
:101230000BFAF80516D529684FF480708860B80558
:1012400003D5284600F003FA0CE0780502D544F4F3
:10125000005407E0380502D544F4804402E02846F3
:1012600000F0F4F9F80316D529684FF4803088604F
:10127000B80303D5284600F0ECF90CE0780302D55A
:1012800044F4004407E0380302D544F4803402E01B
:10129000284600F0DDF9300707D55FEACB6004D5BA
:1012A0002968102044F40074C86070074FF00807E4
:1012B00007D55FEA0B7004D52868C760284600F0A0
:1012C00059F9B00706D52868C068800702D02846BB
:1012D00000F052F9700607D55FEACA6004D52968A4
:1012E000102044F480640861B00607D55FEA0A70F4
:1012F00004D528680761284600F076F9F00606D57F
:1013000028680069800702D0284600F06EF9B00313
:1013100008D55FEAC96005D52968102048602846CD
:1013200000F064F9F00307D55FEA097004D5286876
:101330004760284600F08EF9300446D55FEA4970D0
:1013400040D5F00504D55FEAC87001D044F001042F
:10135000B00504D55FEA887001D544F00204700539
:1013600004D55FEA487001D544F00404300529D55E
:1013700018F0700F26D008F07000402815D006DC59
:10138000102809D020280AD0302816D10AE0502889
:101390000ED0602811D10EE044F008040DE044F0B6
:1013A00010040AE044F0200407E044F0400404E0A4
:1013B00044F0800401E044F480742868816921F0DD
:1013C00070018161296804204860002C05D0686A9A
:1013D000204368622846FFF78FFEBDE8F09F70B596
:1013E000040003D094F8200010B104E0012070BD87
:1013F000204600F081F82068016841F00101016099
:1014000000F0DEFB0546052604E000F0D9FB401B9A
:101410000A2811D820684068C007F6D02068016803
:1014200021F00201016000F0CBFB05460BE000F06B
:10143000C7FB401B0A2806D9606A40F4003060628E
:1014400084F82060D2E7206840688007EFD4207ECF
:101450000128206801683DD021F080010160607E94
:1014600001282068016838D021F040010160A07E89
:1014700001282068016833D021F020010160E07E5E
:101480000128206801682ED041F010010160207F02
:1014900001282068016829D021F008010160607FDF
:1014A00001282068016824D021F004010160D4E9FA
:1014B00002010843D4E90412114308436168491E3C
:1014C00008432168C86100206062012084F8200080
:1014D000002070BD41F08001C0E741F04001C5E748
:1014E00041F02001CAE721F01001CFE741F00801E7
:1014F000D4E741F00401D9E710B586B004461421C1
:101500006846FEF7EEFF18492068884229D117483F
:101510000021026842F000720260006800F0007072
:10152000059012481038026842F00102026000681B
:1015300000F0010005904FF4C05000900220CDE96A
:10154000010103200390092004906946084800F037
:1015500017FA00220521142000F0BEFB142000F031
:10156000ADFB06B010BD00000064004040380240F2
:10157000000002407047000030B589B007AB6A46F2
:101580000021FFF7BAFD0098154C164DA0F201207E
:1015900007280AD8C0B2687000EB800101EBC000D8
:1015A00004EB800007A9FFF7B1FB2878002814D0CE
:1015B00000202870B4F9A430B4F97020B4F93C10BC
:1015C000B4F90800FFF780F8B4F94021B4F90C1120
:1015D000B4F9D8000023FFF79FF809B030BD000030
:1015E0000C450020480000207047704770470000FD
:1015F00070B5044690F82000012804D0606A40F4D9
:101600000020606218E0022084F820002068016851
:1016100021F00101016000F0D3FA05460EE000BFA1
:1016200000F0CEFA401B0A2808D9606A40F4003066
:101630006062052084F82000012070BD20684068A9
:10164000C007EDD1606270BD70477047704770474A
:101650007047704770472DE9F0410446876D00F0F0
:10166000AFFA064694F835000025022806D08020FF
:10167000606584F834500120BDE8F081206801687D
:1016800021F0160101602068416921F0800141616B
:10169000206C08B9A06C20B12068016821F0080115
:1016A00001602068016821F0010101600CE000F098
:1016B00087FA801B052807D920206065032084F85D
:1016C000350084F83450D7E720680068C007EED1B1
:1016D00094F85C103F208840B860012084F8350001
:1016E00084F834500020C7E790F83510022903D061
:1016F0008021416501207047052180F83510006880
:10170000016821F001010160002070472DE9F843D4
:1017100004464FF00009CDF8009063484FF416518D
:10172000A56D0068B0FBF1F72E6894F85C100820F6
:1017300000FA01F131420FD021680A6852070BD537
:101740000A6822F004020A6094F85C108840A860DD
:10175000606D40F00100606594F85C104FF0010886
:1017600008FA01F0304208D021684969090604D519
:10177000A860606D40F00200606594F85C10042081
:101780008840304208D021680968890704D5A860DC
:10179000606D40F00400606594F85C101020884093
:1017A000304218D021680968090714D5A86020685C
:1017B0000168490304D50068000308D5A16C07E05F
:1017C0000168C90503D4016821F008010160216C9A
:1017D00009B12046884794F85C10202088403042A8
:1017E00031D021680968C9062DD5A86094F8350064
:1017F00005282068016806D0490347D50068000322
:101800001DD4616C1CE021F0160101602068416963
:1018100021F080014161206C08B9A06C20B12068E2
:10182000016821F00801016094F85C103F208840B5
:10183000A86084F8358084F83490216D1FE0E16B56
:1018400009B120468847606D00282BD0606DC00725
:1018500014D0052084F835002068016821F00101CA
:1018600001600098401C0090B84203D820680068CE
:10187000C007F6D184F8358084F83490E16C0029F3
:1018800010D001B02046BDE8F04308470168C90503
:10189000D5D4016821F01001016084F8358084F806
:1018A0003490CCE7BDE8F883580000202DE9F041E2
:1018B000044600F085F906465CB1022084F8350044
:1018C000002584F834502068016821F0010101608E
:1018D0000DE00120BDE8F08100F072F9801B0528C1
:1018E00005D920206065032084F83500F2E72068E0
:1018F0000068C007F0D12268116820480140D4E98F
:1019000001031843D4E9033633431843636918438A
:10191000A3691843E3691843236A18430843616ABB
:10192000042903D1D4E90B1319430843106020683C
:101930004069666A20F0070130460E4301270428FB
:101940000CD1A06A0643E06A40B12046FFF78AF84E
:1019500020B14020606584F83570BAE720684661A0
:101960002046FFF76BF894F85C203F21914081609E
:10197000656584F835700020ACE700003F8010F00A
:101980002DE9F84FDFF8F8A1002201240AF1040B39
:1019900003254FF00F090BF1040E00BF0B6804FA8A
:1019A00002F63340B34270D10F7907F00307012FDD
:1019B00001D0022F16D187684FEA420805FA08FCC9
:1019C00027EA0C07D1F80CC00CFA08FC4CEA070C0B
:1019D000C0F808C04768B7430E79C6F300169640B2
:1019E0003E4346600E79F643B6070AD0C7684FEA11
:1019F000420C05FA0CF6B7438E6806FA0CF63E4325
:101A0000C6600E7906F00306022E10D1D60800EB50
:101A10008608D8F8206057074FEAD76C09FA0CF708
:101A2000BE430F6907FA0CF73743C8F82070066801
:101A30004FEA420C05FA0CF7BE430F7907F0030793
:101A400007FA0CF7374307604E6816F4403F1CD086
:101A50004C4E376847F480473760366822F00307FA
:101A600006F480460096484E07EB060CDCF8086842
:101A700097073F0F09FA07F826EA0806DFF80C81F6
:101A8000404503D14FF0000841E072E0DFF80081EB
:101A9000404502D14FF0010839E0DFF8F8804045B9
:101AA00002D14FF0020832E0DFF8EC80404502D16D
:101AB0004FF003082BE0DFF8E480404502D14FF0FF
:101AC000040824E0DFF8D880404502D14FF0050833
:101AD0001DE0DFF8D080404502D14FF0060816E047
:101AE000DFF8C480404502D14FF007080FE0DFF86F
:101AF000BC80404502D14FF0080808E0DFF8B08014
:101B0000404502D14FF0090801E04FF00A0808FAF9
:101B100007F848EA0608CCF80888DAF80060574663
:101B2000D1F804C09E435FEACC3C00D51E433E6022
:101B3000DBF800605F46D1F804C09E435FEA8C3C4E
:101B400000D51E433E60DEF800607746D1F804C041
:101B50009E435FEACC2C00D51E433E60084F0C37F5
:101B60003E68D1F804C09E435FEA8C2C00D51E432A
:101B70003E60521C102AFFF411AFBDE8F88F000040
:101B8000003C014044380240003001400000024067
:101B90000004024000080240000C02400010024015
:101BA0000014024000180240001C024000200240C5
:101BB000002402400069084000D001207047000066
:101BC00001488068704700004C000020024881688E
:101BD00002781144816070474C0000200B4810B51A
:101BE000016841F400710160016841F480610160A5
:101BF000016841F480710160032000F08DF80F202E
:101C000000F006F800F03EF8002010BD003C024055
:101C100010B5014688B00022192000F05DF81920A7
:101C200000F04CF813480024016841F00101016004
:101C3000006805A900F001000690684600F050F920
:101C400000F07EF90C494000B0FBF1F10C480B4A62
:101C5000491E026040F2E732C0E90324C0E90114E2
:101C600000F0B0FB10B1012008B010BD044800F036
:101C700089FCF9E74438024040420F00000001406F
:101C8000D40700200C4882B0016841F48041016013
:101C9000006800F4804000900748001F016841F090
:101CA000805101600068002200F0805000900F21F8
:101CB000901E02B000F010B844380240002809DB42
:101CC00000F01F02012191404009800000F1E02056
:101CD000C0F8001170470000F0B40E4B1B680C46B2
:101CE000C3F30223C3F10705042D00D90425191DF0
:101CF000072901D2002300E0DB1E012606FA05F1C8
:101D0000491E214099409E40761E16403143F0BC4A
:101D100002F0D9BD0CED00E0064900F007020868AA
:101D20004FF6FF03184040EA0220034A10430860C0
:101D3000704700000CED00E00000FA052DE9F843C3
:101D40001748016841F0805101600068154F00F0AC
:101D50008050012600903E64FFF732FF05464FF4A5
:101D60007A78114C05E000BFFFF72AFF401B404581
:101D70000DD86068C003F7D57E64FFF721FF0546E4
:101D8000464607E0FFF71CFF401BB04202D9032084
:101D9000BDE8F88360688003F4D50020F8E7000010
:101DA0004038024000000E42007000402DE9F0472C
:101DB0000E46050065D0DFF81481D8F80000F7B2B0
:101DC00000F00F00B04207D288F80070D8F8000089
:101DD00000F00F00B04254D128683D4C810712D565
:101DE000400703D5206840F4E050206028780007C1
:101DF00003D5206840F4604020602068A96820F086
:101E0000F000084320602878C0072DD0304968686A
:101E10000839012812D0022813D0032811D00968EC
:101E2000890700292DDA216821F00301014321608F
:101E3000FFF7C6FE814641F2883A0EE00968890341
:101E4000EFE709688901ECE7FFF7BAFEA0EB0901AB
:101E5000514502D90320BDE8F0872068696800F089
:101E60000C00B0EB810FEFD1D8F80010404601F024
:101E70000F01B14207D90770006800F00F00B042AF
:101E800001D00120E7E72878400705D52068E968F8
:101E900020F4E050084320602878000706D5206829
:101EA000296920F4604040EAC100206000F058F841
:101EB0002168084AC1F30311515CC8400649086013
:101EC00006480068FFF7A4FE0020C4E7003C02407B
:101ED00008380240A4730008580000205000002079
:101EE0000F2202600C4A136803F003034360136877
:101EF00003F0F0038360136803F4E053C3601268D7
:101F00004FF4E05303EAD20202610448006800F093
:101F10000F0008607047000008380240003C024093
:101F20000448054900680968044AC1F38221515CEC
:101F3000C84070475800002008380240B4730008B9
:101F40000448054900680968044AC1F34231515CFC
:101F5000C84070475800002008380240B473000899
:101F6000154810B5006810F00C02144813D014493D
:101F7000042A0FD0082A0ED10F4C241F2268236890
:101F800002F03F025B0207D52068C0F38810A0FB77
:101F9000010106E0084610BD2168C1F38811A1FBCC
:101FA00000010023FEF7D2F92168C1F30141491C69
:101FB0004900B0FBF1F010BD083802400024F400E5
:101FC00040787D012DE9F84F04006ED02078DFF8CD
:101FD0004C93C007A9F104054AD009F10400016837
:101FE000C1F38101012908D00068C0F381000228F3
:101FF0000AD1D9F80000400206D52868800337D5F9
:1020000060680028E1D033E06068B0F5803F10D010
:10201000B0F5A02F286810D020F480302860286800
:1020200020F4802028606068A8B1FFF7C9FD06464B
:102030000DE0286840F48030F4E740F48020286008
:10204000F7E700BFFFF7BCFD801B642873D8286842
:102050008003F7D50CE0FFF7B3FD064605E000BFAF
:10206000FFF7AEFD801B6428F0D828688003F7D402
:102070002078DFF8AC8280074FF0000A3ED5A748F1
:10208000001D016811F00C0F08D00068C0F381003A
:1020900002280BD1D9F80000400207D42868800735
:1020A00016D5E068012800D112E033E1E068B8B14C
:1020B0000120C8F80000FFF783FD064605E000BFD9
:1020C000FFF77EFD801B0228C0D828688007F7D55F
:1020D0002868216920F0F80040EAC10028600DE07E
:1020E000C8F800A0FFF76CFD064604E0FFF768FDA6
:1020F000801B02281FD828688007F7D420780007A3
:1021000022D5864F87486169703771B1012101601E
:10211000FFF756FD064604E0FFF752FD801B02283C
:1021200009D838688007F7D50EE0C0F800A0FFF79F
:1021300047FD064605E082E0FFF742FD801B0228CE
:102140007DD838688007F7D42078400768D5DFF855
:10215000CCB100270BF13C0BDBF80000C0000BD426
:10216000DBF8001041F08051CBF80010DBF80000E4
:10217000012700F0805000906B4E3068C00510D4ED
:10218000306840F480703060FFF71AFD009005E081
:10219000FFF716FD0099401A022850D83068C00594
:1021A000F6D55E4EA0686C3601280FD00528306841
:1021B00010D020F001003060306820F00400306062
:1021C000A068B8B1FFF7FCFC00900FE0306840F069
:1021D0000100F4E740F004003060F7E7FFF7F0FC9F
:1021E0000099411A41F28830814266D830688007F0
:1021F000F4D50EE0FFF7E4FC009007E0FFF7E0FC09
:102200000099411A41F28830814256D830688007DF
:10221000F4D42FB1DBF8001021F08051CBF800107E
:10222000A069C8B33D49091D0968C1F381010229AC
:102230004AD00228504607D0C8F8600000E03CE0D1
:10224000FFF7BEFC04463BE04746C8F86000FFF7D6
:10225000B7FC064605E000BFFFF7B2FC801B022872
:102260002BD828688001F7D4D4E907010843A16A74
:102270002E4A490802EB0141626A41EA8211084391
:1022800094F82C1040EA0161C9F80010012038666A
:10229000FFF796FC044606E03EE000BFFFF790FC27
:1022A000001B022809D828688001F7D534E000BF58
:1022B000FFF786FC001B022802D90320BDE8F88F37
:1022C00028688001F4D427E00128F7D0D9F800006D
:1022D000E26900F4800191421CD1226A00F03F01C2
:1022E000914217D147F6C071626A0140B1EB821F7B
:1022F00010D1A26A4FF0FF3300F4403103EB5202D9
:10230000B1EB024F06D194F82C1000F07060B0EBE6
:10231000016F01D00120D1E70020CFE7043802404F
:1023200000004742800E4742007000400000FFFF5F
:102330007047704770B590F83C20012A32D00124D4
:1023400080F83C40022280F83D2003685A689D686E
:1023500022F070060A6832435A60134B02689A42B0
:1023600014D0B2F1804F11D0104B9A420ED0104BC6
:102370009A420BD00F4B9A4208D00F4B9A4205D08D
:102380000E4B9A4202D00E4B9A4204D1496825F076
:1023900080031943916080F83D40002180F83C1093
:1023A000084670BD022070BD0000014000040040DE
:1023B00000080040000C00400004014000400140C3
:1023C0000018004010B5040003D094F83D0010B18F
:1023D00007E0012010BD002084F83C00204600F0FA
:1023E0001FF8022084F83D00211D206801F04EFFF7
:1023F000012084F8460084F83E0084F83F0084F809
:10240000400084F8410084F8420084F8430084F8D6
:10241000440084F8450084F83D00002010BD000011
:1024200030B587B0044614216846FEF75AF8226892
:1024300000244C48B2F1804F28D04A4B4A4D103B03
:102440000221AA4231D1026842F002020260006811
:1024500000F002000590186840F004001860186849
:1024600000F004000590C8018DE81300CDE9034198
:1024700069463E48FFF784FA002205211D20FFF738
:102480002BFC1D20FFF71AFC07B030BD016841F09E
:10249000010101600068002200F0010005900521A3
:1024A0001C20FFF719FC1C20ECE7314CA24220D184
:1024B000026842F008020260006800F0080005901F
:1024C000186840F0800018601868029100F08000E1
:1024D00005902015CDE90001039104916946254836
:1024E000FFF74EFA002205213220FFF7F5FB3220DC
:1024F000C8E721498A4210D11A48001D016841F4F9
:10250000802101600068002200F4802005900521F0
:102510001A20FFF7E1FB1A20B4E718498A420ED1CE
:10252000016841F0800101600068002200F0800035
:10253000059005212C20FFF7CFFB2C20A2E71049A6
:102540008A42A1D1016841F48071016000680022D3
:1025500000F48070059005212D20FFF7BDFB2D2094
:1025600090E70000403802400004004000080240AC
:10257000000C0040001C024000480140001C0040CC
:102580000020004090F83D10012901D00120704743
:10259000022180F83D100168CA6842F00102CA6059
:1025A00000681149884214D0B0F1804F11D00F4912
:1025B00088420ED00E4988420BD00E49884208D07E
:1025C0000D49884205D00D49884202D00C49884205
:1025D00004D1816801F00701062903D0016841F0A8
:1025E000010101600020704700000140000400402C
:1025F00000080040000C0040000401400040014081
:102600000018004070B5044690F83C0000250128F1
:1026100017D0012684F83C60022084F83D00206831
:10262000826822F0770222F47F4282600868502894
:1026300038D00DDC20284FD005DC90B3102811D104
:102640004AE0022070BD302846D040280AD13BE045
:1026500060282FD070280DD0B0F5805F03D0B0F582
:10266000005F12D0012584F83D60002084F83C0012
:10267000284670BDCB68D1E90121206801F077FEC2
:102680002068816841F0770109E0CB68D1E9012138
:10269000206801F06CFE2068816841F4804181600F
:1026A000E1E719E0CA684968206801F035FF502168
:1026B000206806E0CA684968206801F07FFF602151
:1026C000206801F05EFECEE7CA684968206801F024
:1026D00023FF40212068F4E7226801461046F0E716
:1026E00070B51E4C2078010612D41D4D410610D540
:1026F00040F0800020700021284600F0F1FBA0602F
:102700002868016A21F00A0101622868016A0162F1
:1027100070BD00214020A16020702868026A41F24B
:1027200011131A4207D1026A9B101A4203D10268A0
:1027300022F001020260286841622868016A21F0E3
:102740000A0101622868016A41F0020101622868F9
:10275000016841F00101016070BD0000D40000205B
:10276000140400202DE9F041054690F83C000026B5
:102770000C46012810D0012085F83C0072B1042AD3
:102780001CD0082A2CD00C2A50D00126002085F815
:102790003C003046BDE8F0810220FBE7D4E900129E
:1027A000E368286801F0CAFE2868816921F00C01FD
:1027B000816128688169A26811430FE0D4E90012A1
:1027C000E368286801F00CFF2868816921F4406102
:1027D000816128688169A26841EA02218161D5E7A7
:1027E0002868D4E9002C277B016A21F480710162FA
:1027F000C169036A21F0030141EA0C0121F0F00CE8
:1028000039074FF420674CEA116123F4206307EA8B
:1028100002221A43C16102622868C16921F00C01D9
:10282000C1612868C169A268114328E02868D4E919
:102830000027E168036A23F480530362D0F81CC0C8
:10284000036A2CF4407C4CEA07274FF6FF7C27F400
:1028500070470CEA013139434FF4204723F42043F9
:1028600007EA02321A43C16102622868C16921F491
:102870004061C1612868C169A26841EA0221C16161
:1028800084E710B5040003D094F83D0010B107E0D0
:10289000012010BD002084F83C00204600F01EF806
:1028A000022084F83D00211D206801F0EFFC01208A
:1028B00084F8460084F83E0084F83F0084F8400025
:1028C00084F8410084F8420084F8430084F844000E
:1028D00084F8450084F83D00002010BD70470000DA
:1028E00030B50446002551B104290DD0082910D077
:1028F00094F8410094F84520012811D10EE094F895
:102900003E0094F84220F7E794F83F0094F8432003
:10291000F2E794F8400094F84420EDE7012A01D052
:10292000012030BD022059B1042912D0082919D044
:1029300084F8410084F845000C2944D0012540E08A
:1029400084F83E0084F842002068C26842F0020227
:1029500010E084F83F0084F843002068C26842F029
:10296000040207E084F8400084F844002068C2684C
:1029700042F00802C2600122206801F0EBFC144919
:102980002068884214D0B0F1804F11D0114988429C
:102990000ED0114988420BD01049884208D0104906
:1029A000884205D00F49884202D00F49884204D19D
:1029B000816801F00701062903D0016841F0010197
:1029C0000160284630BD2068C26842F01002D1E79D
:1029D000000001400004004000080040000C0040DE
:1029E00000040140004001400018004070B504465A
:1029F000006801694FF00005C943890715D4C16813
:102A0000C943890711D4E91E01610120207720689C
:102A100080698007204602D0FFF762FE04E000F0E4
:102A200031F9204600F0E0F9257720680169C943B3
:102A3000490717D4C168C943490713D46FF004018B
:102A40000161022020772068806910F4407F2046D1
:102A500002D0FFF745FE04E000F014F9204600F034
:102A6000C3F9257720680169C943090716D4C168ED
:102A7000C943090712D46FF00801016104202077CF
:102A80002068C0698007204602D0FFF729FE04E0D5
:102A900000F0F8F8204600F0A7F9257720680169D2
:102AA000C943C90617D4C168C943C90613D46FF016
:102AB00010010161082020772068C06910F4407F70
:102AC000204602D0FFF70CFE04E000F0DBF82046C1
:102AD00000F08AF9257720680169C943C90708D140
:102AE000C168C943C90704D1891E0161204600F0AD
:102AF000E1F920680169C943090609D4C168C943DD
:102B0000090605D46FF0800101612046FFF710FC33
:102B100020680169C943490609D4C168C943490607
:102B200005D46FF040010161204600F0EEF9206805
:102B30000169C94389060BD4C168C943890607D412
:102B40006FF0200101612046BDE87040FFF7F1BB46
:102B500070BD0000F0B587B0044614216846FDF74B
:102B6000C0FC226800243E49032002253D4EB2F1FC
:102B7000804F17D03C4B9A4237D10A6842F010027E
:102B80000A60096801F01001059160210091CDE90A
:102B90000154CDE903403548694600BFFEF7F0FE19
:102BA00007B0F0BD0A6842F001020A600A6802F04C
:102BB000010205920A6842F002020A600968009068
:102BC000CDE9015401F002010127CDE9047103941C
:102BD00069462748FEF7D4FEB8020090CDE90154BB
:102BE000CDE9034769463046D8E7224F7B15BA4204
:102BF0000FD10A6842F002020A6009680093CDE929
:102C0000015401F00201CDE9040103946946304604
:102C1000C4E7194F09261948BA420FD10A6842F091
:102C200020020A60096801F02001059181150091D8
:102C3000CDE90154CDE903466946AFE7104FBA42EA
:102C4000AED10A6842F020020A6009680093CDE91B
:102C5000015401F02001CDE90461039469469DE728
:102C600030380240000402400040014000100240A1
:102C70000000024000480140001C004000140240D7
:102C800000200040704770B5044690F83C000026D4
:102C90000D4601280FD0012084F83C006AB1042AB7
:102CA0001DD0082A2FD00C2A3FD00126002084F8FE
:102CB0003C00304670BD022070BD206801F06AFB08
:102CC0002068816941F0080181612068816921F0F3
:102CD00004018161206881692A69114311E020683B
:102CE00001F088FB2068816941F4006181612068FE
:102CF000816921F480618161206881692A6941EAE2
:102D000002218161D2E7206801F0AAFB2068C16935
:102D100041F00801C1612068C16921F00401C1616D
:102D20002068C1692A69114311E0206801F0CCFBD9
:102D30002068C16941F40061C1612068C16921F462
:102D40008061C1612068C1692A6941EA0221C161CB
:102D5000ACE710B5040003D094F83D0010B107E0D3
:102D6000012010BD002084F83C00204600F01EF831
:102D7000022084F83D00211D206801F087FA01201F
:102D800084F8460084F83E0084F83F0084F8400050
:102D900084F8410084F8420084F8430084F8440039
:102DA00084F8450084F83D00002010BD08B5006897
:102DB0000B49884212D10B48016841F4803101600F
:102DC0000068002200F48030009005211820FEF7F2
:102DD00083FFBDE808401820FEF770BF08BD000063
:102DE00000400140443802407047000010B50446DE
:102DF000022249B104290ED0082913D094F84100C9
:102E0000012816D0012010BD94F83E000128F9D108
:102E100084F83E200FE094F83F000128F2D184F8B6
:102E20003F2008E094F840000128EBD184F84020CE
:102E300001E084F841200122206801F08BFA164954
:102E40002068164A884201D0904203D1436C43F473
:102E5000004343642068884213D0B0F1804F10D003
:102E60000F4988420DD00F4988420AD00E49884246
:102E700007D0904205D00D49884202D00C498842C3
:102E800004D1816801F00701062903D0016841F0EF
:102E900001010160002010BD00000140000401405C
:102EA0000004004000080040000C004000400140C9
:102EB0000018004010B5044600680749884201D157
:102EC000FEF784FE05492068884204D12046BDE80B
:102ED000104002F0EFBB10BD00000140000C0040AC
:102EE0000246002041B1042909D008290AD00C2942
:102EF00001D11068006C70471068406B7047106813
:102F0000806B70471068C06B7047704770477047A0
:102F1000F8B5016804460868CA684B6910F00F0FDD
:102F20004FF0000559D003F0010602F490773743C3
:102F300065D0C10705D0D10503D5216C41F0010151
:102F40002164410705D5D90703D0216C41F0020166
:102F50002164810705D5D90703D0216C41F0040114
:102F60002164010707D502F02001314303D0216C11
:102F700041F008012164216C00293AD0800604D573
:102F8000900602D5204601F082FB20684069216C42
:102F9000C0F38010090700D460B3204601F050FB55
:102FA00020684069400621D52068143050E8001F91
:102FB00021F0400140E80012002AF5D1A06BA8B131
:102FC0006C490165A06BFEF78FFB002811D0A06B48
:102FD000016D01B0BDE8F040084783060FD59306A8
:102FE0000DD52046BDE8F84001F051BB2046FFF763
:102FF0008EFFF8BD2046FFF78AFF2564F8BD266BDB
:103000002023012E79D1C60677D5D60675D5086856
:10301000486800904869400640D5A16B0868406840
:103020000004000CEAD0A28D8242E7D9E085C8698D
:10303000B0F5807F2DD020680C3050E8001F21F4BF
:10304000807140E80012002AF5D12068143050E861
:10305000001F21F0010140E80012002AF5D120688C
:10306000143050E8001F21F0400140E80012002A0F
:10307000F5D184F83E30256320680C3050E8001FFD
:1030800021F0100140E80012002AF5D1A06BFEF7F4
:10309000E2FAA08DE18D401A81B229E0A08DE18D88
:1030A000401A81B2E08D0028A8D00029A6D020685F
:1030B0000C3050E8002F22F4907240E80026002ED9
:1030C000F5D12068143050E8002F22F0010240E8CA
:1030D0000026002EF5D184F83E30256320680C30A0
:1030E00050E8002F22F0100240E80023002BF5D119
:1030F0002046FFF70BFFF8BDFFE705062BD51506A9
:1031000029D594F83D002128F5D1A068B0F5805F5D
:1031100001D12069B0B1206A411C21622168007888
:103120004860E08C401E0004000CE084E3D120687D
:10313000C16821F08001C1602068C16841F0400190
:10314000C160D8E7206A0088C0F308004860206AA0
:10315000801C2062E5E74006CDD55006CBD5CA6875
:10316000204622F04002CA6084F83D3000F024FA84
:10317000C1E700003146000870B5040004D094F89F
:103180003D00002510B106E0012070BD84F83C50E0
:10319000204600F023F8242084F83D002068C16810
:1031A00021F40051C160204601F0D2FA2068016983
:1031B00021F4904101612068416921F02A014161B7
:1031C0002068C16841F40051C1602564202084F862
:1031D0003D0084F83E00002070BD00002DE9F04F56
:1031E00087B0074614216846FDF77BF9A648A54B32
:1031F0003A680024A4491038022503264FF0080835
:103200009A4232D10A6842F480120A60096801F4D5
:1032100080110591016841F004010160016801F02D
:1032200004010591016841F008010160006802AAEB
:1032300000F0080005909814CDE9000582E85001DF
:1032400069469248FEF79CFB0420CDE9000502AADE
:10325000694682E850018E48FEF792FB0022052164
:103260003520FEF739FD35203FE08A4B4FF0C00B8B
:103270004FF4806A9A423DD10A6842F080420A6067
:10328000096801F080410591016841F02001016069
:103290000068CDF800B000F02000CDE9048003966E
:1032A000CDE9015469467C48FEF76AFB7C4D7B48BA
:1032B00028604FF02060C5E90104C5E9034A4FF4D6
:1032C00080706C61C5E906404002C5E908042846E3
:1032D000FEF7ECFA08B1FDF7F0FBBD630022052113
:1032E0005220AF63FEF7F8FC5220FEF7E7FC07B070
:1032F000BDE8F08F6B4BDFF890C1DFF8ACE10CF16B
:10330000040C4FF007099A423BD1DCF8002042F050
:103310001002CCF80020DCF8001001F0100105913B
:10332000016841F001010160006802AA00F001009B
:1033300005904FF4C060CDE9000582E8500269466F
:103340007046FEF71DFB564D5848603528604FF01B
:103350000060C5E90104C5E9034A6C61AC61EC6138
:103360002C6228466C62FEF7A1FA08B1FDF7A5FBB6
:10337000BD63002205212520AF63FEF7ADFC2520AB
:10338000B3E74B4B9A4220D10A6842F400320A60FC
:10339000096801F400310591016841F00101016003
:1033A000006802AA00F0010005900C20CDE900059C
:1033B00082E8500269467046FEF7E2FA00220521D3
:1033C0002620FEF789FC26208FE73A4B9A4231D11E
:1033D0000A6842F480220A60096801F4802105919C
:1033E000016841F002010160016801F002010591EC
:1033F000016841F004010160006802AA00F00400C5
:103400000590D814CDE9000582E8500269462A48A3
:10341000FEF7B6FA02AA694682E85002CDE900A595
:103420001A48FEF7ADFA002205212720FEF754FCCA
:1034300027205AE721498A427FF459AFDCF800205F
:1034400042F02002CCF80020DCF8001001F020014E
:103450000591016841F0040101600068CDF800B0F9
:1034600000F00400CDE904800396CDE901546946DB
:103470000648FEF785FA002205214720FEF72CFCBE
:10348000472032E700500040403802400008024028
:10349000000C0240007800400014024058600240D6
:1034A0001407002000100140000002404064024068
:1034B0000044004000480040000402400014014065
:1034C00090F83E30202B0ED159B152B190F83C30DB
:1034D000012B08D0012380F83C300023036301F066
:1034E000BDB90120704702207047000010B50446A6
:1034F00000682449884206D101F07CFD012222495E
:103500002248FFF7DDFF22492068884207D102F0F8
:10351000BBFD1E4802221F494430FFF7D1FF1E4960
:103520002068884207D101F0DBFC184801221B49C2
:10353000CC38FFF7C5FF1A492068884207D101F04F
:10354000ADFD1248012217498838FFF7B9FF164927
:103550002068884207D101F0EBFD0C480122134995
:103560008830FFF7ADFF12492068884209D102F088
:103570008DFD06481222BDE810400E494438FFF781
:103580009FBF10BD00440040C60000204806002038
:1035900000480040C900002000500040CD0000203D
:1035A00000780040F100002000140140EA000020F3
:1035B00000100140804A00207047FEE708B54FF038
:1035C0000008DFF8DCB0374EDFF8DC90374C8DF8C0
:1035D0000080012541F6641AF07A022853D101F0E7
:1035E0006FFC02F0E7F95146484602F06BFD01F02E
:1035F00067FB02F075F82E4F37E0012D02D0022D47
:103600000ED01AE02B49884217DAA4F81C802A4908
:103610004FF47A70CBF8001002F068F802250CE045
:103620002649884209DAA4F81C8025494FF4FA603B
:10363000CBF8001002F05AF803252248007830B386
:103640002148007818B39DF8000020B38DF8008061
:10365000A4F81C80A4F81E8001F032FC01F0C6FB27
:1036600002F03EF8012002F041F8E068B842C4DC04
:10367000A4F81C8000255146484602F00DFD01F0DB
:103680008DF90320F072012002F030F8A4E74FF624
:103690002420A083E6E76846FCF788FFE2E7000005
:1036A000E400002000000020206B10004C4A0020A5
:1036B00030F0A7FF8ECBE5FFD0DD0600C76EC2FF5E
:1036C00010090500EC000020ED000020064D074C1D
:1036D000287A032804D1B5F9020021680844206043
:1036E000012002F003F8F3E7924A0020E4000020F2
:1036F0000F4810B50D4901600921416000214FF4C8
:1037000080328160C0E90312120142610176417684
:103710008176C17601774177FDF761FE002803D0FD
:10372000BDE81040FDF7C9B910BD000000640040BD
:103730005C030020114808B5016841F48001016074
:10374000016801F480010091016841F400110160F9
:103750000068002200F40010009005210E20FEF702
:10376000BBFA0E20FEF7AAFA002205213A20FEF746
:10377000B3FABDE808403A20FEF7A0BA303802405C
:1037800010B5E2B01C224D496846FCF756FE0021F8
:10379000684601F0B7FF4A4C48491C2220611C31A1
:1037A00007A8FCF74AFE002107A801F0ABFF434938
:1037B00060611C2238310EA8FCF73FFE00210EA8E4
:1037C00001F0A0FF3D49A0611C22543115A8FCF76F
:1037D00034FE002115A801F095FF3849E0611C2254
:1037E00070311CA8FCF729FE00211CA801F08AFFFB
:1037F000324920621C228C3123A8FCF71EFE0021D6
:1038000023A801F07FFF2D4960621C22A8312AA85D
:10381000FCF713FE00212AA801F074FF2749A062DB
:103820001C22C43131A8FCF708FE002131A801F0A8
:1038300069FF2249E0621C22E03138A8FCF7FDFD57
:10384000002138A801F05EFF1C4920631C22FC31D6
:103850003FA8FCF7F2FD00213FA801F053FF606391
:103860001C22184946A8FCF7E8FD002146A801F0F3
:1038700049FF1449A0631C221C314DA8FCF7DDFD53
:1038800000214DA801F03EFF0E49E0631C223831B3
:1038900054A8FCF7D2FD002154A801F033FF0949D8
:1038A00020641C2254315BA8FCF7C7FD00215BA8F3
:1038B00001F028FF606462B010BD000014720008BF
:1038C000000000202C73000800B587B01421684662
:1038D000FCF707FE22480021026842F01002026055
:1038E000026802F010020592026842F020020260B3
:1038F000026802F020020592026842F08002026033
:10390000026802F080020592026842F00102026041
:10391000026802F001020592026842F002020260AF
:10392000026802F002020592026842F0040202609C
:10393000026802F004020592026842F00802026086
:10394000006800F0080005904020CDE90001022049
:10395000029069460348FEF713F807B000BD000067
:10396000303802400004024010B588B01C2168467F
:10397000FCF7B7FD1648154900240160B421C0E9E1
:10398000011444F61F61C0E903148461FEF71AFDB7
:1039900008B1FDF792F80E48FFF7DBF908B1FDF723
:1039A0008CF86020009044F62C4001900220029098
:1039B0000022694604940648FFF765F908B1FDF74F
:1039C0007CF80348FFF7C6F808B010BD0048014076
:1039D000A404002010B588B01C216846FCF781FDC6
:1039E00016481549002401605921C0E9011444F624
:1039F0001F61C0E903148461FEF7E4FC08B1FDF720
:103A00005CF80E48FFF7A5F908B1FDF756F86020FD
:103A1000009044F62C40019002200290002269465A
:103A200004940648FFF72FF908B1FDF746F803485C
:103A3000FFF790F808B010BD001C0040EC04002017
:103A400010B588B01C216846FCF74BFD1648154997
:103A5000002401605921C0E9011444F61F61C0E946
:103A600003148461FEF7AEFC08B1FDF726F80E489A
:103A7000FFF76FF908B1FDF720F86020009044F6D9
:103A80002C400190022002900022694604940648CE
:103A9000FFF7F9F808B1FDF710F80348FFF75AF8F7
:103AA00008B010BD002000403405002010B58EB0D5
:103AB00000240794089409940A940B941C216846E6
:103AC0000C94FCF70EFD2A484FF08041016059210B
:103AD000C0E9011444F61F61C0E903148461FEF7D4
:103AE00071FC08B1FCF7E9FF4FF48050079007A97B
:103AF0001F48FEF787FD08B1FCF7DFFF1C48FFF702
:103B000028F908B1FCF7D9FF0B940BA918480C94BD
:103B1000FEF710FC08B1FCF7D0FF6020009044F6DF
:103B20005A30019002200290002269460494104805
:103B3000FFF7A9F808B1FCF7C0FF44F61E3001906A
:103B4000042269460A48FFF79EF808B1FCF7B5FF62
:103B500044F2D0500190082269460548FFF793F8D7
:103B600008B1FCF7AAFF0248FEF7F4FF0EB010BD43
:103B70008403002010B58AB00024224804940594E0
:103B800006940794089409940094019402941C49A3
:103B9000039401605921C0E901144FF6FF71C0E997
:103BA00003148461FEF70EFC08B1FCF786FF4FF4A6
:103BB0008050049004A91348FEF724FD08B1FCF7D7
:103BC0007CFF1048FEF75DFE08B1FCF776FF089415
:103BD00008A90C480994FEF7ADFB08B1FCF76DFF8E
:103BE0000120CDE90040029408226946054803946B
:103BF000FEF7B8FD002801D0FCF75FFF0AB010BD4A
:103C000000040040CC03002010B58AB000242248F4
:103C100004940594069407940894099400940194DC
:103C200002941C49039401605921C0E90114611EEA
:103C3000C0E903148461FEF7C5FB08B1FCF73DFF42
:103C40004FF48050049004A91348FEF7DBFC08B140
:103C5000FCF733FF1048FEF714FE08B1FCF72DFF08
:103C6000089408A90C480994FEF764FB08B1FCF716
:103C700024FF0120CDE90040029400226946064855
:103C80000394FEF76FFD002801D0FCF716FF0AB081
:103C900010BD0000000C00401404002010B588B0D6
:103CA0001C216846FCF71DFC1948184900240160D6
:103CB000B321C0E9011444F61F61C0E90314846113
:103CC000FFF747F808B1FCF7F8FE6020009044F6D3
:103CD000F5300190022002900022694604940C48BD
:103CE000FEF7D1FF08B1FCF7E8FE44F65E20019034
:103CF000042269460648FEF7C6FF08B1FCF7DDFE60
:103D00000348FEF727FF08B010BD00000040014047
:103D10005C0400200C4810B50A4901604FF4E13101
:103D20004160002181600C22C160C0E90412816100
:103D3000C161FFF721FA002803D0BDE81040FCF76D
:103D4000BCBE10BD005000407C0500200C4810B5E2
:103D50000A4901604FF4E131416000218160042291
:103D6000C160C0E904128161C161FFF705FA002852
:103D700003D0BDE81040FCF7A0BE10BD00780040A5
:103D8000C00500200E4810B50C4901600D49416086
:103D90004FF48051816000214FF48062C0E903122A
:103DA0000422C0E90521C161FFF7E6F9002803D02C
:103DB000BDE81040FCF781BE10BD000000100140BE
:103DC00004060020A08601000C4810B50A490160D5
:103DD0004FF416514160002181600C22C160C0E99E
:103DE00004128161C161FFF7C7F9002803D0BDE863
:103DF0001040FCF762BE10BD0044004048060020A1
:103E00000C4810B50A4901604FF416514160002179
:103E100081600C22C160C0E904128161C161FFF7B9
:103E2000ABF9002803D0BDE81040FCF746BE10BD3A
:103E3000004800408C0600200C4810B50A4901607B
:103E40004FF4E1314160002181600C22C160C0E982
:103E500004128161C161FFF78FF9002803D0BDE82A
:103E60001040FCF72ABE10BD00140140D00600200F
:103E7000FEE700002DED028B0027164EDFF858807C
:103E80009FED168A164DDFF85CA04FF001092878E7
:103E900050B90024C4EBC40006EBC00001F0F0FCF4
:103EA000641CE4B2042CF5D30B4801F08FF9687858
:103EB00010B16F7088ED028A00F0A8FE01F070FC6E
:103EC00001F036FA287808B18AF80090012001F054
:103ED0000DFCDCE7CC460020F80000206F12033B0D
:103EE000000000204800002070B50022124B012481
:103EF0009FED120A1146A50702EB820000EBC200FB
:103F000023F8201003EB8000418081800182C16092
:103F1000818281610181C1808183018480F8224096
:103F200080F823406E6A4662521C8662D2B280EDEF
:103F30000B0A072AE0D370BD0C45002000000000EA
:103F4000FEE70000064C0025A07820B101210846BC
:103F500002F078FAA570012001F0C8FBF4E7000038
:103F60000000002008B51B4E0024F07A06282DD151
:103F700001F020FD26E000BF01F0FAF8641CE4B275
:103F8000204600F017FFE8B100254FF49670009529
:103F900001F0ACFB684600F0A7FC0F48C583012583
:103FA0002146284600F0F4FE18B12146284601F0CB
:103FB00071FF6D1CEDB2032DF2D940F2DC51009877
:103FC00002F06AF8032CD7D30720F072012001F029
:103FD0008DFBCAE7000000204C4A00202DED048B29
:103FE0009FED488B494C4A4D207A012802D0022887
:103FF0002BD054E0B4F9060002F091FE53EC182BDC
:1040000002F0A4FE41EC190B286803F087F853EC8A
:10401000192B02F0ADFD02F079FD2860B4F9020021
:1040200002F07DFE9FED3B1B53EC112B02F08EFE48
:1040300041EC190BE86803F071F853EC192B02F00E
:1040400097FD02F063FDE86029E0B4F9060002F094
:1040500066FE53EC182B02F079FE41EC190B6868F0
:1040600003F05CF853EC192B02F06EFF02F04EFDEA
:104070006860B4F9020002F052FE9FED281B53EC79
:10408000112B02F063FE41EC190BA86803F046F80F
:1040900053EC192B02F058FF02F038FDA860607A4B
:1040A0000128B4F90C0019D002F039FE9FED1D1B58
:1040B00053EC112B02F04AFE41EC190B286903F076
:1040C0002DF853EC192B02F03FFF02F01FFD286181
:1040D00002F0D2F8012001F009FB85E702F01FFE93
:1040E00053EC182B02F032FE41EC190B686903F017
:1040F00015F853EC192B02F027FF02F007FD686159
:10410000E6E70000FCA9F1D24D62503F924A002040
:1041100078460020FCA9F1D24D62403F2D431CEBB4
:10412000E2362A3F613255302AA9333F064D074C0B
:1041300040212846FDF73EFD00B1012060720120BC
:1041400001F0D4FAF4E7000000040240000000206F
:1041500010B5502080F31188BFF34F8FBFF36F8FDE
:1041600002F00CFC18B104494FF0805008600020A8
:1041700080F3118810BD000004ED00E030B593B06D
:1041800030216846FCF7ADF914210CA8FCF7A9F919
:1041900020480025016841F080510160006800F06E
:1041A000805011901C48016841F440410160006852
:1041B000022400F44040119001200090000401907E
:1041C0008001CDE90640192008904FF4B470CDE984
:1041D000090404200B906846FDF7F4FE08B172B69E
:1041E000FEE7FDF7ABFD08B172B6FEE70CA90F20A4
:1041F00081E831004FF4A0500F904FF480501090A0
:1042000005210CA8FDF7D2FD002801D072B6FEE70B
:1042100013B030BD403802400070004002480168D1
:1042200041F470010160704788ED00E00148FEF73D
:10423000DDBB00005C0400200148FEF7D7BB000096
:10424000A40400200148FEF7D1BB0000D4070020E1
:104250000148FEF7CBBB0000840300200148FEF7B5
:10426000C5BB0000CC0300200148FEF7BFBB000027
:10427000140400200148FEF7B9BB000034050020FB
:104280000148FEF7B3BB0000EC040020F0B5026863
:10429000254C264D264E274F274B4FF0804CA042F1
:1042A00009D0604507D0A84205D0B04203D0B8423B
:1042B00001D0984204D122F0700E4A6842EA0E0200
:1042C000A0421BD0604519D0A84217D0B04215D0EB
:1042D000B84213D0984211D0184DA8420ED0184DB4
:1042E000A8420BD0174DA84208D0174DA84205D0C0
:1042F000164DA84202D0164DA84203D122F44075B3
:10430000CA682A434D6922F080022A4302608A6803
:10431000C2620A688262A04201D0984201D1096952
:10432000016301214161F0BD000001400004004033
:1043300000080040000C0040000401400040014023
:10434000004401400048014000180040001C0040AB
:104350000020004010B501F01F030121046A9940BC
:104360008C430462016A9A401143016210BD10B58A
:10437000846842EA032224F47F440A432243826091
:1043800010BD826822F070020A4342F0070181608A
:1043900070470000F0B5026A22F001020262036A6F
:1043A00042688469124E24F073050C682C4323F094
:1043B00002058B682B430D4DA84201D0B04205D1B8
:1043C00023F00807CB683B4323F00403A84201D045
:1043D000B04205D14D6922F4407215438A692A43DF
:1043E00042608461496841630362F0BD000001409E
:1043F00000040140F0B5026A22F010020262026A73
:10440000436884690D6824F4E64444EA05248D6811
:1044100022F0200242EA05120F4D104EA84201D0B0
:10442000B04206D1CF6822F0800242EA071222F0A1
:104430004002A84201D0B04207D14D6923F4406345
:1044400043EA85038D6943EA8503436084614968D3
:1044500081630262F0BD00000000014000040140E1
:10446000F0B5026A22F480720262026A4368C4698B
:1044700022F4007224F073050C68124E2C438D68F0
:1044800042EA05220E4DA84201D0B04206D1CF68C3
:1044900022F4006242EA072222F48062A84201D09C
:1044A000B04207D14D6923F4405343EA05138D69A7
:1044B00043EA05134360C4614968C1630262F0BD09
:1044C000000001400004014030B5026A22F480522D
:1044D0000262046A4268C3690D6823F4E64343EA52
:1044E00005238D6824F4005444EA0534084DA8429D
:1044F00002D0084DA84204D14D6922F4804242EA1C
:1045000085124260C36149680164046230BD0000E5
:10451000000001400004014010B5036A046A24F061
:1045200001040462846924F0F00444EA021423F0D4
:104530000A020A438461026210BD000070B5046A79
:1045400024F0010404628469056A154EB04214D057
:10455000B0F1804F11D0134EB0420ED0124EB04287
:104560000BD0124EB04208D0114EB04205D0114EC1
:10457000B04202D0104EB04203D124F003041443E1
:1045800001E044F001041A0724F0F00444EA126246
:1045900025F00A0301F00A0119438261016270BD2E
:1045A000000001400004004000080040000C0040F2
:1045B00000040140004001400018004010B5036AAB
:1045C00023F0100303628369046A23F4704343EA0F
:1045D000023224F0A00343EA01118261016210BD9E
:1045E00030B5046A24F0100404628469056A24F476
:1045F000407444EA022222F470444FF6FF7202EA49
:1046000003322243A02425F0A00304EA0111194338
:104610008261016230BD00000148FEF779BC0000F4
:104620007C0500200148FEF773BC0000C005002097
:1046300010B5806B0021C185C184FEF768FC10BDF8
:1046400001680C3151E8002F22F4907241E80023F8
:10465000002BF5D10168143151E8002F22F001023E
:1046600041E80023002BF5D1016B012909D1016834
:104670000C3151E8002F22F0100241E80023002BFA
:10468000F5D1202180F83E1000210163704708B564
:1046900090F83E10222901D0022008BD82684FF414
:1046A00080539A4201D1016921B1816A9A421BD09B
:1046B0004AB10AE00268816A5268C2F308020A80BD
:1046C000816A891C08E0026972B10268526802F0CE
:1046D0007F020A70816A491C8162C18D491E0904EA
:1046E000090CC18503D019E002685268F1E701683E
:1046F000CA6822F02002CA600168CA6822F4807287
:10470000CA6001684A6922F001024A61202180F8EA
:104710003E10016B012903D0FEF7E8FE002008BD22
:104720000021016301680C3151E8002F22F01002D2
:1047300041E80023002BF5D101680A68D20602D5B2
:104740000A6849680091818DFEF7E0FBE6E700000A
:1047500070B5044600680169E26821F440511143D4
:1047600001612169A068E269084361691143084356
:104770002168CA6849F20C639A430243CA60206800
:104780004169A26921F440711143416131492068B6
:10479000884202D03049884202D1FDF7D1FB01E0C6
:1047A000FDF7BEFBE2690023192164253226B2F52C
:1047B000004F626828D0A0FB0101930F9200FBF725
:1047C000C5FD0146B0FBF5F06FF01802504301EB58
:1047D000800006EB0010B0FBF5F000F0F002B1FB3A
:1047E000F5F002EB0012B1FBF5F06FF0180358433F
:1047F00001EB800006EB0010B0FBF5F000F00F00BD
:1048000021681044886070BDA0FB010192185B41D3
:10481000FBF79CFD0146B0FBF5F00201B1FBF5F0A2
:104820006FF01803584301EB800006EBC000B0FBAB
:10483000F5F000F0F80002EB4002B1FBF5F0584350
:1048400001EB800006EBC000B0FBF5F000F00700C4
:10485000D6E700000010014000140140816282850B
:10486000C28500210164222280F83E2080F83C109D
:104870000168CA6842F48072CA6001684A6942F0FD
:1048800001024A610068C16841F02001C160002056
:10489000704700000148FEF73BBB00000406002003
:1048A0000148FEF735BB0000480600200148FEF72E
:1048B0002FBB00008C0600200148FEF729BB00003A
:1048C000D0060020FEE70907090E002804DB00F1EE
:1048D000E02080F80014704700F00F0000F1E020A5
:1048E00080F8141D704700002DE9F041054600F0E6
:1048F000E7F9084C084F094E03E0E783012000F078
:10490000F5FE707A0028F8D1206940422860BDE8A1
:10491000F08100004C4A002024FAFFFF0000002034
:1049200010B5184C9FED160A4FF4FA7084ED050A85
:104930009FED150A84ED000A00F0D8FE9FED130AE2
:104940004FF4487084ED050A9FED110A84ED000ACA
:104950009FED100A84ED010A00F0C8FE012100203D
:1049600001F070FD4FF4C87000F0C0FE9FED0A0A20
:104970004FF4967084ED010ABDE8104000F0B6BE19
:1049800000000000784600200000F04200003442A1
:104990000000314300008C430000C84210B51448A9
:1049A00000212DED048BB3EE0E8AC37A9FED110A20
:1049B000114CDFED120A124ADFED128A9FED129AB6
:1049C000DFED129A4FF44870022B01D0042B0BD16B
:1049D00084ED020AC4ED010A116000F087FEC4ED07
:1049E000009A0C3484EC038ABDEC048B10BD0000EB
:1049F00000000020000020437846002000008C4387
:104A0000E40000200000A0420000384200004842BC
:104A10003FB59FED4F2A00234E4900930193029327
:104A20000393B0F91C200C78002A0ADDB0F91810A5
:104A30008A4201DD21440183B0F918108A420BDD5E
:104A400016E0B0F9181009DA8A4201DA091B01836D
:104A5000B0F918108A420BDB028309E0002901DD5E
:104A6000091B0183B0F91810002901DA21440183E0
:104A7000B0F91E10B0F91A50002908DDA94201DD75
:104A80002C444483B0F91A40A14208DD08E0A94251
:104A900001DA2C1B4483B0F91A40A14200DB4183A8
:104AA000B0F9200000EE100A6846B8EEC01A00EE19
:104AB000101AF8EEC00A00EE102AB8EEC00A00F094
:104AC0004BF925496A4600BF02EB830003EB8304E0
:104AD00090ED000A04EBC30401EB8404BDEEC00AB0
:104AE00010EE100A00B2A080002800DA404200EE6A
:104AF000100AB8EEC00AB4EEC02AF1EE10FA01D2E4
:104B0000B0EE402A5B1CDBB2042BDDD312EE100AA0
:104B1000124A90421BDD00209FED110AC0EE020AEE
:104B200000EB800202EBC00201EB8203401CB3F9F0
:104B30000420C0B200EE102A0428B8EEC00A20EE0D
:104B4000200ABDEEC00A10EE102A9A80E8D33FBDBD
:104B500000000000E00000200C450020007094469A
:104B6000007094461A4910B58A8E0B88D21AB1F893
:104B700068301A44B1F89C30D21A02800A888B8EB1
:104B80001A44B1F868309A1AB1F89C301A4442803D
:104B90000A888B8EB1F89C401A44B1F868302344DF
:104BA0001A44524282808B69CA6CD21AD1F8803082
:104BB0001A44D1F8B430D21AC260CB6C8A691A4454
:104BC000D1F88030D1F8B4109A1A1144016110BDA7
:104BD0000C4500200C489FED0B0A002180ED020AD5
:104BE0008171C160016142F2107101854A424285C2
:104BF0008185C2854FF4FA5101864EF2C00141868B
:104C000070470000000000004C4A00202DE9F84FDA
:104C10000020ADF800002548FFF7A4FF234800F06E
:104C200063F82248FFF7F4FEDFF88480DFF8849011
:104C3000DFF884A0DFF884B0002400BF04EB840018
:104C400000EBC40708EB8706C4EBC401B6F9040007
:104C500009EBC10500EE100A06212846B8EEC00A8D
:104C600000F032FE9AED020A2846052100F02CFEE3
:104C700038F9270000EE100A2846B8EEC00A00F006
:104C800041FEBDEEC00A5A4642F2107110EE100A03
:104C9000ADF80000684600F041FB641CBDF8000060
:104CA000E4B23081042CC9D9BDE8F88F4C4A002009
:104CB0000C450020CC460020F8000020F0D8FFFF73
:104CC00000200849012200BF00EB800303EBC00372
:104CD00001EB8303401CC0B283F822200428F3D3E5
:104CE000704700000C45002010B5044690ED090AFD
:104CF0000621174800F0E8FD1648052190ED020A4C
:104D0000134800F0E1FD94ED050A114800F0FAFDAA
:104D1000BDEEC00A10EE100A2084B4F93220B4F9B6
:104D2000301004F1200000F0F9FAB4F92A20B4F9A7
:104D3000281004F11C0000F0F1FAB4F92E20B4F9A7
:104D40002C1004F11E00BDE8104000F0E7BA00008E
:104D5000C4480020F8000020F1EE401A71EEE01A7D
:104D600071EEC11AC0ED001A70EE601A71EEC11A30
:104D7000C0ED011A70EE201A30EEC00A71EEC11AB1
:104D800030EE410AC0ED021A80ED030A70470000C0
:104D9000074B002201EB001099184979814201D19B
:104DA00001207047521CD2B2092AF5D30020704767
:104DB000AC4A002030B50C4D002100F1100400F188
:104DC000200200F1300368184079A04203D09042DD
:104DD00001D0984201D1012030BD491CC9B2092936
:104DE000F1D3002030BD0000AC4A00202DE9F04195
:104DF0002A4C9FED290A4FF496752DED028B28461B
:104E000084ED030A00F072FC9FED250A284684ED2C
:104E1000040A00F06BFC9FED238A284684ED038A88
:104E200000F064FC9FED200A4FF4487084ED000A06
:104E300000F05CFC9FED1D0A4FF4FA7684ED030A46
:104E4000304600F053FC9FED1A0A4FF42F7784EDA3
:104E5000040A384600F04AFC9FED160A384684EDF5
:104E6000010A84ED038A00F041FC0121002001F0D9
:104E7000E9FA9FED110A304684ED000A00F036FC95
:104E80009FED0E0A284684ED010ABDEC028BBDE8B9
:104E9000F04100F02BBC00000000CE42784600201C
:104EA00000001B430000F042000048420000D642D0
:104EB00000000C4300008C430000964300000000FB
:104EC000024800210170017141717047E800002023
:104ED000884201DD084670479042FCDA1046704770
:104EE000F0B53B49DFF8ECC00A4608785378002853
:104EF00064D088780CF80030401CC0B288700B2851
:104F000065D100220A708A704FEA0200CD781CF841
:104F10000040401C2C44C0B2CC700A28F6D39CF848
:104F20000A00E4B2A04246D19CF80100532842D1C5
:104F30009CF8070048719CF80640DFED270A44EA18
:104F4000002000EE100A0C71C880B8EE400A244818
:104F5000244D20EE200ADFED210A20EE200ADFEDAD
:104F6000220A10EE104A80ED050AAC4203DD30EE55
:104F7000600A80ED050A1D4F84681D4DBC4206DDA8
:104F800010EE106AAE4202D98679761C8671AC4268
:104F900006D910EE104ABC4202DD8479641E847189
:104FA00080ED020A847901EE104AB8EE411A01EE52
:104FB000200A80ED050ACA70002A08D1552B06D1B7
:104FC0000120087088780CF80030401C8870F0BD13
:104FD000CC000020BE460020000000380000344312
:104FE0004C4A0020000034430000B44300002A4330
:104FF00000002AC3F0B52648DFF898C002460178C1
:1050000054784FF0010EB9B381780CF80140491C77
:10501000C9B28170162938D10022027082701146FF
:10502000C5781CF80130491C6B40C9B2C370152902
:10503000F6D3D9B2C943C9B2C1709CF815308B42BE
:1050400017D101259CF80F60134B00215F187F7961
:10505000BE4200D10025491CC9B20929F6D345B189
:1050600093F9041091B1491EC9B219444E7181F8E7
:105070000EE0C270002A08D1042C06D180F800E0AE
:1050800081780CF80140491C8170F0BD0821ECE7E3
:10509000C5000020A8460020AC4A002030B5224AB6
:1050A000114610784B78C8B39078CC1C2354401C20
:1050B000C0B29070022835D1002010709070217815
:1050C0001A4801F001050570C1F340054570C1F3B0
:1050D00080058570C1F3C005C570C1F30015057169
:1050E000C1F340154571C1F380158571C909C171BE
:1050F000617801F001040472C1F340044472C1F309
:1051000080048472C1F3C004C472C1F30014047338
:10511000C1F340144473C1F380118173FF2B01D19B
:105120000120107030BD0000F0000020C84A0020AF
:105130000E4801464278897872B1C378821DD154F5
:105140005B1CDBB2C370022B06D100234370C3701B
:105150001378037152784271027843789A4303D0EE
:10516000FF2901D10121417070470000E8000020B3
:1051700070B5094E094D0A4C03E0AE83012000F0E2
:10518000B5FA607A0028F8D1BDE8704040F2DC51F1
:10519000044800F0C7BF000024FAFFFF4C4A00207B
:1051A000C84A0020E0E60B0090ED001AB4EEC01AE9
:1051B000F1EE10FA02DD80ED000A7047B4EEE01A5D
:1051C000F1EE10FAF9D2C0ED000A70470A490968F9
:1051D000016042689FED090A914202D8D2430A4415
:1051E00000E08A1A00EE902AF8EE600A80EE801A3B
:1051F00080ED021A41607047240C0040002474497D
:105200004449A1F11800D1ED030A90ED031A9FED76
:10521000420AF4EEC10AF1EE10FA03DD31EE001A93
:1052200080ED031AF4EEC10AF1EE10FA03D271EE2A
:10523000400AC0ED030A91ED051AD0ED050AB4EE5F
:10524000E01AF1EE10FA03DD70EE800AC0ED050AF7
:10525000B4EEE01AF1EE10FA03D270EEC00AC0ED1F
:10526000050AD1ED040A90ED041AF4EEC10AF1EE3C
:1052700010FA03DD31EE001A80ED041AF4EEC10AD3
:10528000F1EE10FA03D271EE400AC0ED040A91ED7E
:10529000011AD0ED010AB4EEE01AF1EE10FA03DDC6
:1052A00070EE800AC0ED010AB4EEE01AF1EE10FAD9
:1052B00003D270EEC00AC0ED010A91ED001AD0EDE4
:1052C000000AB4EEE01AF1EE10FA03DD70EE800A87
:1052D000C0ED000AB4EEE01AF1EE10FA03D270EE5F
:1052E000C00AC0ED000A91ED021AD0ED020AB4EE38
:1052F000E01AF1EE10FA03DD70EE800AC0ED020A4A
:10530000B4EEE01AF1EE10FA03D230EEC00A80EDEE
:10531000020A704790460020CDCCCC3DB0F9003059
:105320008B4201DD018070479342FCDA02807047B6
:105330002DE9F05F4648474942688A4201DD4160F5
:1053400003E0002A01DA0021F9E74068424C4142BB
:10535000DFF80891DFF808A1DFF80881C4F8DC1055
:10536000002541F2883BC4F8100100BF05EB850021
:1053700000EBC50004EB8007C5EBC50197ED370ACC
:1053800009EBC1060621B8EEC00A304600F09CFACF
:1053900098ED020A3046052100F096FA97ED3A0A98
:1053A0003046B8EEC00A00F0ADFABDEEC00A524673
:1053B000594610EE100AFFF78BFD00EE100A6D1C27
:1053C000EDB2B8EEC00A012DBDEEC00A10EE100A13
:1053D000A7F8D400CAD9DFF88490DFF88CA00025A4
:1053E000A9F1700942F2107B05EB850000EBC500C6
:1053F00004EB8007C5EBC501B7F9D40009EBC10682
:1054000000EE100A06213046B8EEC00AD03700F090
:105410005BFA98ED020A3046052100F055FAB7F91B
:10542000000000EE100A3046B8EEC00A00F06AFA3A
:10543000BDEEC00A5246594610EE100AFFF748FD6D
:105440006D1CEDB23881012DCED9BDE8F09F000072
:10545000E000002020A107000C4500206C4900203E
:1054600078ECFFFFF8000020F0D8FFFFFCF7B6FB58
:10547000FEF784FEFEF728FAFEF73AF9FEF75AF92E
:10548000FEF780FCFEF712FBFEF774FBFEF7BCFB99
:10549000FEF704FCFEF768FAFEF79CFAFEF7D0FA76
:1054A000FEF738FCFEF752FCFEF78EFCFEF7A8FC78
:1054B000FEF7C2FCFBF776F9FEF716FD00F016F8D2
:1054C000FFF788FB00F048F900F022FF00F0F6FF3C
:1054D00000F086FFFEF754F900F00FF9FEE70146F1
:1054E0000020842900D0C81C704700002DE9F0413D
:1054F000654E00242DED068BDFED649A9FED64AAC6
:10550000DFED64AA06F1E008DFED638A9FED638AB0
:105510009FED639AC4EBC40706EBC705B0EE682A9B
:10552000F0EE691AB0EE4A1AF0EE6A0AB0EE480AD6
:10553000284600F0AFF92846B0EE490A032100F0F2
:10554000C3F908EBC705B0EE682AF0EE481AB0EED2
:10555000481AF0EE480AB0EE480A284600F09AF9D8
:105560002846B0EE490A032100F0AEF9641CE4B20B
:10557000042CCFD3B0EE682AF0EE481AB0EE481AE9
:10558000F7EE000AB0EE480A464800F083F9B0EEA4
:10559000490A0321434800F097F94248B0EE682ACF
:1055A000F0EE481AB0EE481ADFED3F0AB0EE480AB6
:1055B000383000F06FF93B48B0EE490A032138302B
:1055C00000F082F9374E0024703606F1700800BFF3
:1055D000C4EBC40706EBC705B0EE682AF0EE481A24
:1055E000B0EE481AF7EE000AB0EE480A284600F07E
:1055F00051F92846B0EE490A032100F065F908EB9D
:10560000C7000546B0EE682AF0EE481AB0EE481A18
:10561000F5EE000AB0EE480A00F03CF92846B0EE7C
:10562000490A032100F050F9641CE4B2022CCFD3E4
:10563000B0EE682AF0EE481AB0EE481AF7EE000A0B
:10564000B0EE480A194800F025F9B0EE490A0321E6
:10565000164800F039F91548B0EE682AF0EE481AFD
:10566000B0EE481ADFED120AB0EE480A383000F00A
:1056700011F9B0EE490ABDEC068B0321BDE8F041FB
:105680000A48383000F020B9CC460020ACC5A73716
:10569000000070427B149E3F6F12033B000000002D
:1056A00000803B458C4800200000C842DC490020B7
:1056B000CDCCCC3D09490878020606D4420604D573
:1056C000C243920602D0401C0870704740F0800030
:1056D00008704FF0FF30886070470000D400002051
:1056E0000149012008707047E800002010B500B99A
:1056F000012000F0DFFF002010BD10B501F000F820
:10570000002010BD7FB50D4604464169B0F9080080
:1057100081B1A16971B1FFF7E2FED4E905128DE80C
:105720000700D4E900102B46226901F0FCF8039031
:1057300004B070BDFFF7D3FE03A9CDE90001208AB4
:105740002B4682B2D4E9001001F0C0F8012801D044
:105750000020EDE70398EBE700221048114683187C
:10576000521C5971D2B29973092AF8D3122242718C
:10577000232282712122C2711122027232224272CC
:10578000132282723322C2722222027331224273A6
:10579000016001710149491D81617047AC4A0020D7
:1057A00030B59FED310A314C06212DED028B81B0D1
:1057B0002F488DED000A94ED510A04F59C74B8EE63
:1057C000C00A00F081F82B4D0521294895ED020A09
:1057D00000F07AF894ED060A2548B8EEC00A00F009
:1057E00091F89FED258ADFED258A8DED000AF0EE18
:1057F000480AB0EE680A6846FFF7D6FC9DED000A3D
:105800000621BDEEC00A10EE100A00B200EE100A2A
:10581000A0801748B8EEC00A383800F055F8144890
:1058200095ED020A0521383800F04EF8B4F9000071
:1058300000EE100A0E48B8EEC00A383800F062F8E0
:105840008DED000AF0EE480AB0EE680A6846FFF7F0
:10585000ABFC9DED000ABDEEC00A10EE100A2081DF
:1058600001B0BDEC028B30BD000000000C450020F3
:10587000144A0020F8000020000096C4000096445E
:105880009FED030A80ED030A80ED090A70470000CE
:1058900000000000DFED0B2A00F11401C0ED012A29
:1058A000C0ED022AC0ED032AC0ED042A80ED000AF3
:1058B000C0ED0B2AC0ED0C2A80ED0D2AC1EC030AC5
:1058C0007047000000000000072907D2DFE801F060
:1058D00004070A0D1013160080ED050A704780EDCD
:1058E000060A704780ED070A704780ED0B0A704783
:1058F00080ED0C0A704780ED0D0A704780ED000ABC
:1059000070470000D0ED000A30EEC00A80ED010AB9
:10591000D0ED0C0AB4EEE00AF1EE10FA0AD2F1EE84
:10592000600AB4EEE00AF1EE10FA03DD9FED200A02
:1059300080ED010A90ED030AD0ED010AD0ED0D1AB9
:1059400000EEA10A80ED030A90ED0B1AB4EEC10A35
:10595000F1EE10FA06DCB1EE411AB4EEC10AF1EE36
:1059600010FA01D280ED031A90ED020A30EEC00A5F
:1059700080EE212A80ED042A90ED050A20EE201AFF
:1059800080ED081A90ED060AD0ED031A20EE210AE8
:1059900080ED090AD0ED071A31EE000A61EE821A95
:1059A000C0ED0A1A30EE210AC0ED020A704700006D
:1059B000000000002DE9F041374D384C394E4FF4CE
:1059C000FA772DED028BE87A9FED358A04281BD1FA
:1059D0003846DFED358A9FED350AC4ED048A84ED43
:1059E000010A9FED330A84ED030A9FED320A84ED2C
:1059F000058A84ED000AFFF779FE2F483060C4ED78
:105A0000028A3846FFF772FEE87A9FED2C0A0228D8
:105A100027D0062821D14FF44875DFED290A284602
:105A2000C4ED050A84ED030AFFF760FE9FED250A29
:105A3000284684ED020AFFF759FE9FED230A4FF432
:105A40002F7084ED000A9FED210A84ED030AFFF711
:105A50004DFE9FED1F0A84ED040ABDEC028BBDE8EC
:105A6000F081DFED1C0A3846C4ED000ADFED1A0AAA
:105A7000C4ED030A84ED058A84ED040AFFF736FEBF
:105A800016489FED170A306084ED010A9FED150A54
:105A900084ED020AE1E700000000002078460020C3
:105AA00000003442E40000200000A04200008C42CC
:105AB0000000E84200003143801A060000000C4359
:105AC00000000E43000038420000944200002042D3
:105AD00000000743000096430000F04210980200C7
